:100000000C942A000C9447000C94D7000C944700E1
:100010000C9447000C9447000C9447000C94470044
:100020000C9447000C9449000C9447000C941F0159
:100030000C9447000C9447000C9447000C94470024
:100040000C9447000C9447000C9447000C94470014
:100050000C94470011241FBECFE5D4E0DEBFCDBF16
:1000600010E0A0E6B0E0ECE8FCE002C005900D92E4
:10007000A636B107D9F720E0A6E6B0E001C01D9290
:10008000A43AB207E1F70E941D040C9444060C94B4
:1000900000001F920F920FB60F9211248F939F931F
:1000A000AF93BF938091800090918100A0918200D6
:1000B000B09183000296A11DB11D809380009093A2
:1000C0008100A0938200B0938300BF91AF919F9174
:1000D0008F910F900FBE0F901F901895F89460911C
:1000E00080007091810080918200909183007894CB
:1000F000089590936300809362000895CF92DF92F9
:10010000EF92FF920F931F9300916600109167008A
:1001100020916800309169006B017C01C01AD10AFE
:10012000E20AF30A97018601053011052105310520
:10013000B8F14091600050916100209162003091CF
:1001400063004217530770F4465F5F4F509361009E
:100150004093600024173507A8F430936100209382
:10016000600010C02417350768F44A5051095093B5
:100170006100409360004217530720F43093610000
:1001800020936000209160003091610039BD28BD4E
:100190006093660070936700809368009093690095
:1001A0001F910F91FF90EF90DF90CF9008951F92D5
:1001B0000F920FB60F9211242F933F938F939F931B
:1001C000839B0BC080917800882381F18CB59DB50D
:1001D00090937D0080937C0029C0809178008823D3
:1001E00029F18CB59DB520917C0030917D0082175E
:1001F000930758F020917C0030917D00821B930B77
:1002000090937B0080937A000CC020917C00309109
:100210007D00821B930B805E914B90937B008093BB
:100220007A0081E080937900109278009F918F91FD
:100230003F912F910F900FBE0F901F9018951F9216
:100240000F920FB60F9211248F939F93EF93FF930A
:100250008CB18A3061F4E0918500F0E0EA57FF4FFD
:10026000108281E080938400109285000EC09091EE
:1002700085009D3150F4E091850091E09E0F9093B0
:100280008500F0E0EA57FF4F8083FF91EF919F9147
:100290008F910F900FBE0F901F9018959C012250C8
:1002A0003109273C310510F087EE93E0089501975E
:1002B0004E9740F480917300853030F48F5F8093C7
:1002C000730002C01092730081E09091730095302A
:1002D00008F480E00895CF92DF92EF92FF920F939F
:1002E0001F93CF93DF93009749F488B3897F88BB2E
:1002F00085B38C7F85BB1CBE13BC6EC09C012A5B82
:100300003F4F2D38310550F00F2EFDECCF2EFCEC79
:10031000DF2EED2CFFE3FF2EF02D08C00F2EC12C99
:10032000D12CF0E8EF2EFFE3FF2EF02DEC018C0135
:100330000B5F1F4F072E000C880B990B0E941605B0
:10034000A70196010E947A050E94DE04060F171F7E
:10035000C61BD70B11235CF088B3826088BB88B3BF
:100360008B7F88BB0F3F110509F07CF413C088B365
:100370008D7F88BB88B3846088BB11950195110976
:100380000F3F110509F024F405C00FEF10E002C083
:100390000FEF10E00CBFDD235CF085B3816085BBFF
:1003A00085B38D7F85BBCF3FD10509F07CF413C0A9
:1003B00085B38E7F85BB85B3826085BBD195C195A2
:1003C000D109CF3FD10509F024F405C0CFEFD0E02B
:1003D00002C0CFEFD0E0C3BDDF91CF911F910F914D
:1003E000FF90EF90DF90CF9008958F3F910519F027
:1003F00014F08FEF90E081302FEF920714F481E03A
:100400009FEF9C01992324F422273327281B390BC3
:100410002CBF181619063CF488B3826088BB88B3D9
:100420008B7F88BB089599233CF488B38D7F88BB6C
:1004300088B3846088BB089588B3897F88BB08959A
:100440008F3F910519F014F08FEF90E081302FEF7E
:10045000920714F481E09FEF9C01992324F4222752
:100460003327281B390B23BD181619063CF485B316
:10047000816085BB85B38D7F85BB089599233CF44E
:1004800085B38E7F85BB85B3826085BB089585B3B8
:100490008C7F85BB089580E090E00E94F50180E0AC
:1004A00090E00E942002089584E690E00E94F50109
:1004B00084E690E00E94200208958CE99FEF0E945C
:1004C000F5018CE99FEF0E942002089588E790E0F3
:1004D0000E94F5018EEC9FEF0E94200208958EECA1
:1004E0009FEF0E94F50188E790E00E9420020895A6
:1004F0008F929F92AF92BF92CF92DF92EF92FF9234
:10050000CF9380917F00882331F080917E0081110C
:1005100004C0C1E003C0C1E001C0C0E0CC2361F071
:1005200080917200882309F43CC1109272008CED16
:1005300095E00E94790035C180917200811108C058
:1005400080916400909165000E9457018111C1E083
:10055000CC23F1F00E944B0284EC99E00E947900D8
:100560008AE0809372000E946E0060936E00709328
:100570006F00809370009093710080916A00909159
:100580006B0090936D0080936C001092730009C112
:1005900080917200882309F404C10E946E006B01EF
:1005A0007C0180916E0090916F00A0917000B091DD
:1005B000710046015701881A990AAA0ABB0A80915C
:1005C0007200853009F4CCC078F4823009F46EC032
:1005D00020F4813009F455C0E4C0833009F495C09B
:1005E000843009F4A8C0DDC08A3051F020F4863090
:1005F00009F4CBC0D6C08B3019F18336A9F1D1C034
:1006000029E5821622E09206A104B10408F4C9C0CB
:100610008CED95E00E9479008091640090916500D6
:100620004F9710F08BE001C083E680937200C09278
:100630006E00D0926F00E0927000F0927100B1C035
:1006400089E5881682E09806A104B10408F4A9C0DF
:1006500081E080937200C0926E00D0926F00E092B1
:100660007000F09271009DC00E944B0221ED821635
:1006700027E09206A104B10408F493C0109272001E
:1006800090C00E945D0289EC88169104A104B10417
:1006900008F487C082E080937200C0926E00D0920E
:1006A0006F00E0927000F09271007BC00E946F02B8
:1006B00020916C0030916D0046EF4203C001439FD2
:1006C000900D112484549D4F8639910514F486E9C8
:1006D00090E0813223E0920714F080E293E0092E4B
:1006E000000CAA0BBB0B88159905AA05BB0508F0E1
:1006F00058C083E080937200C0926E00D0926F0069
:10070000E0927000F09271004CC00E94540289E5A2
:10071000881682E09806A104B10408F442C084E07F
:1007200080937200C0926E00D0926F00E0927000D1
:10073000F092710036C00E94660221E2821623E028
:100740009206A104B10468F185E080937200C09222
:100750006E00D0926F00E0927000F092710021C0A4
:100760000E94540281E2881683E09806A104B10435
:10077000C0F086E080937200C0926E00D0926F004D
:10078000E0927000F09271000CC00E946F0229ECA0
:1007900082169104A104B10420F00E944B02109231
:1007A0007200CF91FF90EF90DF90CF90BF90AF900D
:1007B0009F908F90089587B38E6087BB84B38360CA
:1007C00084BB81B3806881BB88B3897F88BB85B3D4
:1007D0008C7F85BB8BE683BF1CBE89B7816089BFD8
:1007E0008CE685BD13BC10BC83E389B980E98AB966
:1007F00086E880BD81B3846081BB81B3877F81BB84
:1008000085B7846085BF85B7877F85BF8BB78068D4
:100810008BBF81B3806181BB82E28FBD8AE18EBDD7
:100820008FE19EE497BD86BD8CED95E099BD88BDB6
:100830008AB780688ABF789408950E94DB03812C70
:10084000912C54010E946E006B017C010E947E007D
:10085000D701C60188199909AA09BB09C297A10540
:10086000B105A0F1809178008823A9F080917400EF
:1008700090917500A0917600B0917700A701960144
:10088000281B390B4A0B5B0B2F31310541055105F4
:1008900010F01092780080917800811117C081E0EB
:1008A00080937800C0927400D0927500E092760038
:1008B000F092770082B3846082BB3AE13A95F1F717
:1008C00000C082B38B7F82BB4601570180917900C3
:1008D0008823B1F020917A0030917B00AFE9B6E433
:1008E0000E940F06929582958F7089279F708927A5
:1008F0000E944E01909365008093640010927900ED
:100900000E94780280918400813009F09BCF809111
:100910008600843431F4809187008A3321F080E0AE
:1009200003C080E001C081E0882309F444C088E866
:1009300090E00E941E068C01E8E8F0E080818A3396
:1009400021F0882311F03196F9CF8A33A1F5EF0118
:100950002196CE010E941E067C0190936B0080932D
:100960006A0088818A3321F0882311F02196F9CF1B
:100970008A33A9F42196CE010E941E0680937F003F
:1009800088818A3321F0882311F02196F9CF8A33A8
:1009900031F4CE0101960E941E0680937E00809164
:1009A0007200811108C0B701C8010E946B018CED73
:1009B00095E00E9479001092840044CF0E94E504E3
:1009C0006894B1110C94740508950E94590588F03B
:1009D0009F5798F0B92F9927B751B0F0E1F0660F03
:1009E000771F881F991F1AF0BA95C9F714C0B13044
:1009F00091F00E947305B1E008950C947305672F80
:100A0000782F8827B85F39F0B93FCCF38695779572
:100A10006795B395D9F73EF490958095709561955B
:100A20007F4F8F4F9F4F0895E89409C097FB3EF486
:100A300090958095709561957F4F8F4F9F4F99232B
:100A4000A9F0F92F96E9BB279395F69587957795A9
:100A50006795B795F111F8CFFAF4BB0F11F460FF69
:100A60001BC06F5F7F4F8F4F9F4F16C0882311F0C1
:100A700096E911C0772321F09EE8872F762F05C0D5
:100A8000662371F096E8862F70E060E02AF09A9570
:100A9000660F771F881FDAF7880F9695879597F965
:100AA000089557FD9058440F551F59F05F3F71F05E
:100AB0004795880F97FB991F61F09F3F79F08795C5
:100AC0000895121613061406551FF2CF4695F1DF4E
:100AD00008C0161617061806991FF1CF86957105DE
:100AE000610508940895E894BB2766277727CB0112
:100AF00097F908950E948D050C94FE050E94F0055B
:100B000038F00E94F70520F0952311F00C94E705CA
:100B10000C94ED0511240C9474050E94510570F39A
:100B2000959FC1F3950F50E0551F629FF001729F92
:100B3000BB27F00DB11D639FAA27F00DB11DAA1FA1
:100B4000649F6627B00DA11D661F829F2227B00DEE
:100B5000A11D621F739FB00DA11D621F839FA00D79
:100B6000611D221F749F3327A00D611D231F849FC9
:100B7000600D211D822F762F6A2F11249F57504020
:100B80009AF0F1F088234AF0EE0FFF1FBB1F661F9B
:100B9000771F881F91505040A9F79E3F510580F064
:100BA0000C94E7050C9474055F3FE4F3983ED4F38E
:100BB000869577956795B795F795E7959F5FC1F708
:100BC000FE2B880F911D9695879597F9089597F9B3
:100BD0009F6780E870E060E008959FEF80EC0895E3
:100BE00000240A941616170618060906089500240C
:100BF0000A9412161306140605060895092E039486
:100C0000000C11F4882352F0BB0F40F4BF2B11F4F9
:100C100060FF04C06F5F7F4F8F4F9F4F0895A29F6B
:100C2000B001B39FC001A39F700D811D1124911DC0
:100C3000B29F700D811D1124911D0895FC0188271C
:100C40009927E89421912032E9F3293010F02E30D1
:100C5000C8F32B3241F02D3239F4689404C00E945D
:100C60003C06820F911D219120532A30C0F31EF4BF
:100C7000909581959F4F08957AE0979F902D879F3B
:0C0C8000802D910D11240895F894FFCFF1
:060C8C00DC05DC05E703B6
:00000001FF
